{
  "address": "0x08c5966e2f4B7c8773B76c9798D10699ac9B321C",
  "abi": [
    {
      "inputs": [
        {
          "internalType": "address",
          "name": "_treasury_wallet",
          "type": "address"
        }
      ],
      "stateMutability": "nonpayable",
      "type": "constructor"
    },
    {
      "anonymous": false,
      "inputs": [
        {
          "indexed": true,
          "internalType": "uint256",
          "name": "claimId",
          "type": "uint256"
        },
        {
          "indexed": false,
          "internalType": "string",
          "name": "hospitalName",
          "type": "string"
        },
        {
          "indexed": false,
          "internalType": "address",
          "name": "patientAddress",
          "type": "address"
        },
        {
          "indexed": false,
          "internalType": "uint256",
          "name": "medicalProcedure",
          "type": "uint256"
        },
        {
          "indexed": false,
          "internalType": "uint256",
          "name": "medicalProcedureCost",
          "type": "uint256"
        }
      ],
      "name": "ClaimCreated",
      "type": "event"
    },
    {
      "anonymous": false,
      "inputs": [
        {
          "indexed": true,
          "internalType": "string",
          "name": "hospitalName",
          "type": "string"
        },
        {
          "indexed": true,
          "internalType": "address",
          "name": "hospitalAddress",
          "type": "address"
        }
      ],
      "name": "HospitalAdded",
      "type": "event"
    },
    {
      "anonymous": false,
      "inputs": [
        {
          "indexed": true,
          "internalType": "string",
          "name": "hospitalName",
          "type": "string"
        },
        {
          "indexed": false,
          "internalType": "uint256",
          "name": "paymentAmount",
          "type": "uint256"
        },
        {
          "indexed": true,
          "internalType": "address",
          "name": "patientAddress",
          "type": "address"
        },
        {
          "indexed": false,
          "internalType": "uint256",
          "name": "medicalProcedure",
          "type": "uint256"
        }
      ],
      "name": "HospitalPaid",
      "type": "event"
    },
    {
      "anonymous": false,
      "inputs": [
        {
          "indexed": false,
          "internalType": "uint256",
          "name": "newLoadingRate",
          "type": "uint256"
        }
      ],
      "name": "LoadingRateChanged",
      "type": "event"
    },
    {
      "anonymous": false,
      "inputs": [
        {
          "indexed": true,
          "internalType": "uint256",
          "name": "policy",
          "type": "uint256"
        },
        {
          "indexed": false,
          "internalType": "address",
          "name": "lock",
          "type": "address"
        }
      ],
      "name": "MembershipAddedToPolicy",
      "type": "event"
    },
    {
      "anonymous": false,
      "inputs": [
        {
          "indexed": true,
          "internalType": "uint256",
          "name": "policyNumber",
          "type": "uint256"
        },
        {
          "indexed": false,
          "internalType": "string",
          "name": "name",
          "type": "string"
        },
        {
          "indexed": false,
          "internalType": "uint256[]",
          "name": "coverage",
          "type": "uint256[]"
        }
      ],
      "name": "PolicyCreated",
      "type": "event"
    },
    {
      "anonymous": false,
      "inputs": [
        {
          "indexed": false,
          "internalType": "uint256",
          "name": "code",
          "type": "uint256"
        },
        {
          "indexed": false,
          "internalType": "uint256",
          "name": "cost",
          "type": "uint256"
        },
        {
          "indexed": false,
          "internalType": "uint256",
          "name": "probability",
          "type": "uint256"
        }
      ],
      "name": "ProcedureAdded",
      "type": "event"
    },
    {
      "inputs": [
        {
          "internalType": "string",
          "name": "hospitalName",
          "type": "string"
        },
        {
          "internalType": "address",
          "name": "hospitalAddress",
          "type": "address"
        }
      ],
      "name": "addHospital",
      "outputs": [],
      "stateMutability": "nonpayable",
      "type": "function"
    },
    {
      "inputs": [
        {
          "internalType": "string",
          "name": "name",
          "type": "string"
        },
        {
          "internalType": "uint256[]",
          "name": "coverage",
          "type": "uint256[]"
        }
      ],
      "name": "addInsurancePolicy",
      "outputs": [],
      "stateMutability": "nonpayable",
      "type": "function"
    },
    {
      "inputs": [
        {
          "internalType": "uint256",
          "name": "policy",
          "type": "uint256"
        },
        {
          "internalType": "address",
          "name": "lock",
          "type": "address"
        }
      ],
      "name": "addMembershipToPolicy",
      "outputs": [],
      "stateMutability": "nonpayable",
      "type": "function"
    },
    {
      "inputs": [
        {
          "internalType": "uint256",
          "name": "code",
          "type": "uint256"
        },
        {
          "internalType": "uint256",
          "name": "cost",
          "type": "uint256"
        },
        {
          "internalType": "uint256",
          "name": "probability",
          "type": "uint256"
        }
      ],
      "name": "addProcedure",
      "outputs": [],
      "stateMutability": "nonpayable",
      "type": "function"
    },
    {
      "inputs": [
        {
          "internalType": "uint256",
          "name": "amount",
          "type": "uint256"
        },
        {
          "internalType": "uint256",
          "name": "percentage",
          "type": "uint256"
        }
      ],
      "name": "applyPercentage",
      "outputs": [
        {
          "internalType": "uint256",
          "name": "",
          "type": "uint256"
        }
      ],
      "stateMutability": "pure",
      "type": "function"
    },
    {
      "inputs": [],
      "name": "claimCounter",
      "outputs": [
        {
          "internalType": "uint256",
          "name": "",
          "type": "uint256"
        }
      ],
      "stateMutability": "view",
      "type": "function"
    },
    {
      "inputs": [
        {
          "internalType": "uint256",
          "name": "",
          "type": "uint256"
        }
      ],
      "name": "claims",
      "outputs": [
        {
          "internalType": "string",
          "name": "hospitalName",
          "type": "string"
        },
        {
          "internalType": "address",
          "name": "patient_address",
          "type": "address"
        },
        {
          "internalType": "uint256",
          "name": "medicalProcedure",
          "type": "uint256"
        },
        {
          "internalType": "uint256",
          "name": "medicalProcedureCost",
          "type": "uint256"
        }
      ],
      "stateMutability": "view",
      "type": "function"
    },
    {
      "inputs": [],
      "name": "getAllClaims",
      "outputs": [
        {
          "components": [
            {
              "internalType": "string",
              "name": "hospitalName",
              "type": "string"
            },
            {
              "internalType": "address",
              "name": "patient_address",
              "type": "address"
            },
            {
              "internalType": "uint256",
              "name": "medicalProcedure",
              "type": "uint256"
            },
            {
              "internalType": "uint256",
              "name": "medicalProcedureCost",
              "type": "uint256"
            }
          ],
          "internalType": "struct Treasury.Claim[]",
          "name": "",
          "type": "tuple[]"
        }
      ],
      "stateMutability": "view",
      "type": "function"
    },
    {
      "inputs": [
        {
          "internalType": "uint256",
          "name": "claimId",
          "type": "uint256"
        }
      ],
      "name": "getClaim",
      "outputs": [
        {
          "components": [
            {
              "internalType": "string",
              "name": "hospitalName",
              "type": "string"
            },
            {
              "internalType": "address",
              "name": "patient_address",
              "type": "address"
            },
            {
              "internalType": "uint256",
              "name": "medicalProcedure",
              "type": "uint256"
            },
            {
              "internalType": "uint256",
              "name": "medicalProcedureCost",
              "type": "uint256"
            }
          ],
          "internalType": "struct Treasury.Claim",
          "name": "",
          "type": "tuple"
        }
      ],
      "stateMutability": "view",
      "type": "function"
    },
    {
      "inputs": [
        {
          "internalType": "string",
          "name": "hospitalName",
          "type": "string"
        }
      ],
      "name": "getHospitalAddress",
      "outputs": [
        {
          "internalType": "address",
          "name": "",
          "type": "address"
        }
      ],
      "stateMutability": "view",
      "type": "function"
    },
    {
      "inputs": [
        {
          "internalType": "uint256",
          "name": "policy",
          "type": "uint256"
        }
      ],
      "name": "getMembershipFromPolicy",
      "outputs": [
        {
          "internalType": "address",
          "name": "",
          "type": "address"
        }
      ],
      "stateMutability": "view",
      "type": "function"
    },
    {
      "inputs": [
        {
          "internalType": "uint256",
          "name": "policyNumber",
          "type": "uint256"
        }
      ],
      "name": "getPremium",
      "outputs": [
        {
          "internalType": "uint256",
          "name": "",
          "type": "uint256"
        }
      ],
      "stateMutability": "view",
      "type": "function"
    },
    {
      "inputs": [],
      "name": "loading_rate",
      "outputs": [
        {
          "internalType": "uint256",
          "name": "",
          "type": "uint256"
        }
      ],
      "stateMutability": "view",
      "type": "function"
    },
    {
      "inputs": [
        {
          "internalType": "string",
          "name": "hospital_name",
          "type": "string"
        },
        {
          "internalType": "uint256",
          "name": "paymentAmount",
          "type": "uint256"
        },
        {
          "internalType": "address",
          "name": "_patient_address",
          "type": "address"
        },
        {
          "internalType": "uint256",
          "name": "medicalProcedure",
          "type": "uint256"
        }
      ],
      "name": "payHospital",
      "outputs": [],
      "stateMutability": "nonpayable",
      "type": "function"
    },
    {
      "inputs": [],
      "name": "policy_counter",
      "outputs": [
        {
          "internalType": "uint256",
          "name": "",
          "type": "uint256"
        }
      ],
      "stateMutability": "view",
      "type": "function"
    },
    {
      "inputs": [
        {
          "internalType": "uint256",
          "name": "new_loading_rate",
          "type": "uint256"
        }
      ],
      "name": "setLoadingRate",
      "outputs": [],
      "stateMutability": "nonpayable",
      "type": "function"
    },
    {
      "inputs": [],
      "name": "treasury_wallet",
      "outputs": [
        {
          "internalType": "address",
          "name": "",
          "type": "address"
        }
      ],
      "stateMutability": "view",
      "type": "function"
    }
  ],
  "transactionHash": "0x7c72221c6f432bed6b72c666630b18dfe7f3e5f8ab94774da048c86c7c392ee2",
  "args": [
    "0x3FE96Fd6ff721B15d5946CBb301AADEc7C0928C7"
  ],
  "numDeployments": 2,
  "solcInputHash": "d8bb1fb01b8d52b57bc3a8f59e3cb5b9",
  "bytecode": "0x60806040523480156200001157600080fd5b50604051620018483803806200184883398101604081905262000034916200009e565b600a6008819055600060095580546001600160a01b0319166001600160a01b0392909216919091179055620000cb565b60006001600160a01b0382165b92915050565b620000828162000064565b81146200008e57600080fd5b50565b8051620000718162000077565b600060208284031215620000b557620000b5600080fd5b6000620000c3848462000091565b949350505050565b61176d80620000db6000396000f3fe608060405234801561001057600080fd5b506004361061011b5760003560e01c80634efa8f17116100b25780639512fb3b11610081578063a888c2cd11610066578063a888c2cd14610260578063a98db39614610283578063bf90c02d1461028c57600080fd5b80639512fb3b1461023a578063a0dabfcb1461024d57600080fd5b80634efa8f17146101e95780635aef2447146101f25780635b23c27d146102125780635c405b811461022757600080fd5b80633416af8f116100ee5780633416af8f146101875780633c0e86ba146101b05780633d25ac8c146101c35780634d099648146101d657600080fd5b806308f54c3e146101205780630cf33275146101355780631bf1fffb146101545780633098920714610167575b600080fd5b61013361012e366004610de9565b61029f565b005b61013e60095481565b60405161014b9190610e67565b60405180910390f35b61013e610162366004610e90565b610330565b600a5461017a906001600160a01b031681565b60405161014b9190610ecb565b61017a610195366004610e90565b6000908152600660205260409020546001600160a01b031690565b6101336101be366004610ed9565b61044c565b6101336101d1366004610f3d565b6104ab565b6101336101e4366004610fbb565b610681565b61013e60015481565b610205610200366004610e90565b61075e565b60405161014b91906110bb565b61021a61088b565b60405161014b919061113e565b610133610235366004610e90565b610a29565b61013361024836600461114f565b610a93565b61013e61025b366004611171565b610b05565b61027361026e366004610e90565b610b47565b60405161014b94939291906111a4565b61013e60085481565b61017a61029a3660046111de565b610c03565b60095460009081526005602052604090206102bb908383610c34565b5060095460009081526007602052604090206102d784826112fe565b50600980549060006102e8836113d8565b91905055506009547f9ef9b973661c495624cfd675c93206df84209de5d252c5190623c1def0d5e06e8484846040516103239392919061144d565b60405180910390a2505050565b600081815260056020908152604080832080548251818502810185019093528083528493849392919083018282801561038857602002820191906000526020600020905b815481526020019060010190808311610374575b5050505050905060005b815181101561041d57600460008383815181106103b1576103b1611473565b6020026020010151815260200190815260200160002054600360008484815181106103de576103de611473565b60200260200101518152602001908152602001600020546103ff9190611489565b61040990846114a8565b925080610415816113d8565b915050610392565b5060008261042d84600854610b05565b61043791906114a8565b905061044381846114a8565b95945050505050565b6000838152600360209081526040808320859055600490915290819020829055517f42dbedb466fff6b6408608cb4a0260cfa32164f40f1da2aa85a967e42c7dc8129061049e908590859085906114bb565b60405180910390a1505050565b600a546001600160a01b031633146104de5760405162461bcd60e51b81526004016104d590611540565b60405180910390fd5b60006001600160a01b03166002856040516104f99190611572565b908152604051908190036020019020546001600160a01b03160361052f5760405162461bcd60e51b81526004016104d5906115bc565b60006002856040516105419190611572565b908152604051908190036020018120546001600160a01b031691506000908290869061056c906115cc565b60006040518083038185875af1925050503d80600081146105a9576040519150601f19603f3d011682016040523d82523d6000602084013e6105ae565b606091505b50509050806105cf5760405162461bcd60e51b81526004016104d59061160b565b604080516080810182528781526001600160a01b03861660208083019190915281830186905260608201889052600154600090815290819052919091208151819061061a90826112fe565b5060208201516001828101805473ffffffffffffffffffffffffffffffffffffffff19166001600160a01b0390931692909217909155604083015160028301556060909201516003909101558054906000610674836113d8565b9190505550505050505050565b60006001600160a01b031660028360405161069c9190611572565b908152604051908190036020019020546001600160a01b0316146106d25760405162461bcd60e51b81526004016104d59061164f565b806002836040516106e39190611572565b90815260405190819003602001812080546001600160a01b0393841673ffffffffffffffffffffffffffffffffffffffff199091161790559082169061072a908490611572565b604051908190038120907f6e3a1bab169a0e2be4f8574901a5218e9f7319af1973e0d304486c3e5cebd3db90600090a35050565b61079260405180608001604052806060815260200160006001600160a01b0316815260200160008152602001600081525090565b60015482106107b35760405162461bcd60e51b81526004016104d590611693565b600082815260208190526040908190208151608081019092528054829082906107db9061122f565b80601f01602080910402602001604051908101604052809291908181526020018280546108079061122f565b80156108545780601f1061082957610100808354040283529160200191610854565b820191906000526020600020905b81548152906001019060200180831161083757829003601f168201915b505050918352505060018201546001600160a01b031660208201526002820154604082015260039091015460609091015292915050565b6060600060015467ffffffffffffffff8111156108aa576108aa610c94565b60405190808252806020026020018201604052801561090f57816020015b6108fc60405180608001604052806060815260200160006001600160a01b0316815260200160008152602001600081525090565b8152602001906001900390816108c85790505b50905060005b600154811015610a2357600081815260208190526040908190208151608081019092528054829082906109479061122f565b80601f01602080910402602001604051908101604052809291908181526020018280546109739061122f565b80156109c05780601f10610995576101008083540402835291602001916109c0565b820191906000526020600020905b8154815290600101906020018083116109a357829003601f168201915b505050918352505060018201546001600160a01b03166020820152600282015460408201526003909101546060909101528251839083908110610a0557610a05611473565b60200260200101819052508080610a1b906113d8565b915050610915565b50919050565b600a546001600160a01b03163314610a535760405162461bcd60e51b81526004016104d590611540565b60088190556040517f02dfc8314647139d3b5d77d7518752fd07b019c15acb97bc9ddec5505d9024ac90610a88908390610e67565b60405180910390a150565b60008281526006602052604090819020805473ffffffffffffffffffffffffffffffffffffffff19166001600160a01b0384161790555182907f5cd227421765f010130529b6663cfe153b5bdda5e040201828935dda96b1e5ed90610af9908490610ecb565b60405180910390a25050565b60006064821115610b285760405162461bcd60e51b81526004016104d5906116fd565b6064610b348385611489565b610b3e9190611723565b90505b92915050565b600060208190529081526040902080548190610b629061122f565b80601f0160208091040260200160405190810160405280929190818152602001828054610b8e9061122f565b8015610bdb5780601f10610bb057610100808354040283529160200191610bdb565b820191906000526020600020905b815481529060010190602001808311610bbe57829003601f168201915b505050506001830154600284015460039094015492936001600160a01b039091169290915084565b6000600282604051610c159190611572565b908152604051908190036020019020546001600160a01b031692915050565b828054828255906000526020600020908101928215610c6f579160200282015b82811115610c6f578235825591602001919060010190610c54565b50610c7b929150610c7f565b5090565b5b80821115610c7b5760008155600101610c80565b634e487b7160e01b600052604160045260246000fd5b601f19601f830116810181811067ffffffffffffffff82111715610cd057610cd0610c94565b6040525050565b6000610ce260405190565b9050610cee8282610caa565b919050565b600067ffffffffffffffff821115610d0d57610d0d610c94565b601f19601f83011660200192915050565b82818337506000910152565b6000610d3d610d3884610cf3565b610cd7565b905082815260208101848484011115610d5857610d58600080fd5b610d63848285610d1e565b509392505050565b600082601f830112610d7f57610d7f600080fd5b8135610d8f848260208601610d2a565b949350505050565b60008083601f840112610dac57610dac600080fd5b50813567ffffffffffffffff811115610dc757610dc7600080fd5b602083019150836020820283011115610de257610de2600080fd5b9250929050565b600080600060408486031215610e0157610e01600080fd5b833567ffffffffffffffff811115610e1b57610e1b600080fd5b610e2786828701610d6b565b935050602084013567ffffffffffffffff811115610e4757610e47600080fd5b610e5386828701610d97565b92509250509250925092565b805b82525050565b60208101610b418284610e5f565b805b8114610e8257600080fd5b50565b8035610b4181610e75565b600060208284031215610ea557610ea5600080fd5b6000610d8f8484610e85565b60006001600160a01b038216610b41565b610e6181610eb1565b60208101610b418284610ec2565b600080600060608486031215610ef157610ef1600080fd5b6000610efd8686610e85565b9350506020610f0e86828701610e85565b9250506040610f1f86828701610e85565b9150509250925092565b610e7781610eb1565b8035610b4181610f29565b60008060008060808587031215610f5657610f56600080fd5b843567ffffffffffffffff811115610f7057610f70600080fd5b610f7c87828801610d6b565b9450506020610f8d87828801610e85565b9350506040610f9e87828801610f32565b9250506060610faf87828801610e85565b91505092959194509250565b60008060408385031215610fd157610fd1600080fd5b823567ffffffffffffffff811115610feb57610feb600080fd5b610ff785828601610d6b565b925050602061100885828601610f32565b9150509250929050565b60005b8381101561102d578181015183820152602001611015565b50506000910152565b6000611040825190565b808452602084019350611057818560208601611012565b601f01601f19169290920192915050565b80516080808452600091908401906110808282611036565b91505060208301516110956020860182610ec2565b5060408301516110a86040860182610e5f565b506060830151610d636060860182610e5f565b60208082528101610b3e8184611068565b6000610b3e8383611068565b60006110e2825190565b808452602084019350836020820285016110fc8560200190565b8060005b85811015611131578484038952815161111985826110cc565b94506020830160209a909a0199925050600101611100565b5091979650505050505050565b60208082528101610b3e81846110d8565b6000806040838503121561116557611165600080fd5b6000610ff78585610e85565b6000806040838503121561118757611187600080fd5b60006111938585610e85565b925050602061100885828601610e85565b608080825281016111b58187611036565b90506111c46020830186610ec2565b6111d16040830185610e5f565b6104436060830184610e5f565b6000602082840312156111f3576111f3600080fd5b813567ffffffffffffffff81111561120d5761120d600080fd5b610d8f84828501610d6b565b634e487b7160e01b600052602260045260246000fd5b60028104600182168061124357607f821691505b602082108103610a2357610a23611219565b6000610b416112618381565b90565b61126d83611255565b81546008840282811b60001990911b908116901990911617825550505050565b600061129a818484611264565b505050565b818110156112ba576112b260008261128d565b60010161129f565b5050565b601f82111561129a576000818152602090206020601f850104810160208510156112e55750805b6112f76020601f86010483018261129f565b5050505050565b815167ffffffffffffffff81111561131857611318610c94565b611322825461122f565b61132d8282856112be565b6020601f83116001811461136157600084156113495750858201515b600019600886021c19811660028602178655506113ba565b600085815260208120601f198616915b828110156113915788850151825560209485019460019092019101611371565b868310156113ad5784890151600019601f89166008021c191682555b6001600288020188555050505b505050505050565b634e487b7160e01b600052601160045260246000fd5b600060001982036113eb576113eb6113c2565b5060010190565b82818337505050565b81835260006020840193507f07ffffffffffffffffffffffffffffffffffffffffffffffffffffffffffffff83111561143657611436600080fd5b6020830292506114478385846113f2565b50500190565b6040808252810161145e8186611036565b905081810360208301526104438184866113fb565b634e487b7160e01b600052603260045260246000fd5b8181028082158382048514176114a1576114a16113c2565b5092915050565b80820180821115610b4157610b416113c2565b606081016114c98286610e5f565b6114d66020830185610e5f565b610d8f6040830184610e5f565b602381526000602082017f4f6e6c79206120766f7465722063616e2063616c6c20746869732066756e637481527f696f6e0000000000000000000000000000000000000000000000000000000000602082015291505b5060400190565b60208082528101610b41816114e3565b600061155a825190565b611568818560208601611012565b9290920192915050565b600061157e8284611550565b9392505050565b601781526000602082017f686f73706974616c20646f6573206e6f74206578697374000000000000000000815291505b5060200190565b60208082528101610b4181611585565b6000610b4182611261565b600e81526000602082017f5061796d656e74206661696c6564000000000000000000000000000000000000815291506115b5565b60208082528101610b41816115d7565b601781526000602082017f486f73706974616c20616c726561647920657869737473000000000000000000815291506115b5565b60208082528101610b418161161b565b601481526000602082017f436c61696d20646f6573206e6f74206578697374000000000000000000000000815291506115b5565b60208082528101610b418161165f565b603581526000602082017f50657263656e746167652073686f756c6420626520612077686f6c65206e756d81527f626572206265747765656e203120616e6420313030000000000000000000000060208201529150611539565b60208082528101610b41816116a3565b634e487b7160e01b600052601260045260246000fd5b6000826117325761173261170d565b50049056fea26469706673582212201825974674d445dd1b714bd7e57a277c2823fa4e5ab29a0c88f73bcb8475d75b64736f6c63430008110033",
  "devdoc": {
    "kind": "dev",
    "methods": {},
    "version": 1
  },
  "userdoc": {
    "kind": "user",
    "methods": {},
    "version": 1
  },
  "storageLayout": {
    "storage": [
      {
        "astId": 2725,
        "contract": "contracts/Treasury.sol:Treasury",
        "label": "claims",
        "offset": 0,
        "slot": "0",
        "type": "t_mapping(t_uint256,t_struct(Claim)2720_storage)"
      },
      {
        "astId": 2727,
        "contract": "contracts/Treasury.sol:Treasury",
        "label": "claimCounter",
        "offset": 0,
        "slot": "1",
        "type": "t_uint256"
      },
      {
        "astId": 2731,
        "contract": "contracts/Treasury.sol:Treasury",
        "label": "hospitalList",
        "offset": 0,
        "slot": "2",
        "type": "t_mapping(t_string_memory_ptr,t_address)"
      },
      {
        "astId": 2735,
        "contract": "contracts/Treasury.sol:Treasury",
        "label": "medical_procedure_cost",
        "offset": 0,
        "slot": "3",
        "type": "t_mapping(t_uint256,t_uint256)"
      },
      {
        "astId": 2739,
        "contract": "contracts/Treasury.sol:Treasury",
        "label": "medical_procedure_probability",
        "offset": 0,
        "slot": "4",
        "type": "t_mapping(t_uint256,t_uint256)"
      },
      {
        "astId": 2744,
        "contract": "contracts/Treasury.sol:Treasury",
        "label": "policy",
        "offset": 0,
        "slot": "5",
        "type": "t_mapping(t_uint256,t_array(t_uint256)dyn_storage)"
      },
      {
        "astId": 2748,
        "contract": "contracts/Treasury.sol:Treasury",
        "label": "membership_nft",
        "offset": 0,
        "slot": "6",
        "type": "t_mapping(t_uint256,t_address)"
      },
      {
        "astId": 2752,
        "contract": "contracts/Treasury.sol:Treasury",
        "label": "policy_name",
        "offset": 0,
        "slot": "7",
        "type": "t_mapping(t_uint256,t_string_storage)"
      },
      {
        "astId": 2754,
        "contract": "contracts/Treasury.sol:Treasury",
        "label": "loading_rate",
        "offset": 0,
        "slot": "8",
        "type": "t_uint256"
      },
      {
        "astId": 2756,
        "contract": "contracts/Treasury.sol:Treasury",
        "label": "policy_counter",
        "offset": 0,
        "slot": "9",
        "type": "t_uint256"
      },
      {
        "astId": 2758,
        "contract": "contracts/Treasury.sol:Treasury",
        "label": "treasury_wallet",
        "offset": 0,
        "slot": "10",
        "type": "t_address"
      }
    ],
    "types": {
      "t_address": {
        "encoding": "inplace",
        "label": "address",
        "numberOfBytes": "20"
      },
      "t_array(t_uint256)dyn_storage": {
        "base": "t_uint256",
        "encoding": "dynamic_array",
        "label": "uint256[]",
        "numberOfBytes": "32"
      },
      "t_mapping(t_string_memory_ptr,t_address)": {
        "encoding": "mapping",
        "key": "t_string_memory_ptr",
        "label": "mapping(string => address)",
        "numberOfBytes": "32",
        "value": "t_address"
      },
      "t_mapping(t_uint256,t_address)": {
        "encoding": "mapping",
        "key": "t_uint256",
        "label": "mapping(uint256 => address)",
        "numberOfBytes": "32",
        "value": "t_address"
      },
      "t_mapping(t_uint256,t_array(t_uint256)dyn_storage)": {
        "encoding": "mapping",
        "key": "t_uint256",
        "label": "mapping(uint256 => uint256[])",
        "numberOfBytes": "32",
        "value": "t_array(t_uint256)dyn_storage"
      },
      "t_mapping(t_uint256,t_string_storage)": {
        "encoding": "mapping",
        "key": "t_uint256",
        "label": "mapping(uint256 => string)",
        "numberOfBytes": "32",
        "value": "t_string_storage"
      },
      "t_mapping(t_uint256,t_struct(Claim)2720_storage)": {
        "encoding": "mapping",
        "key": "t_uint256",
        "label": "mapping(uint256 => struct Treasury.Claim)",
        "numberOfBytes": "32",
        "value": "t_struct(Claim)2720_storage"
      },
      "t_mapping(t_uint256,t_uint256)": {
        "encoding": "mapping",
        "key": "t_uint256",
        "label": "mapping(uint256 => uint256)",
        "numberOfBytes": "32",
        "value": "t_uint256"
      },
      "t_string_memory_ptr": {
        "encoding": "bytes",
        "label": "string",
        "numberOfBytes": "32"
      },
      "t_string_storage": {
        "encoding": "bytes",
        "label": "string",
        "numberOfBytes": "32"
      },
      "t_struct(Claim)2720_storage": {
        "encoding": "inplace",
        "label": "struct Treasury.Claim",
        "members": [
          {
            "astId": 2713,
            "contract": "contracts/Treasury.sol:Treasury",
            "label": "hospitalName",
            "offset": 0,
            "slot": "0",
            "type": "t_string_storage"
          },
          {
            "astId": 2715,
            "contract": "contracts/Treasury.sol:Treasury",
            "label": "patient_address",
            "offset": 0,
            "slot": "1",
            "type": "t_address"
          },
          {
            "astId": 2717,
            "contract": "contracts/Treasury.sol:Treasury",
            "label": "medicalProcedure",
            "offset": 0,
            "slot": "2",
            "type": "t_uint256"
          },
          {
            "astId": 2719,
            "contract": "contracts/Treasury.sol:Treasury",
            "label": "medicalProcedureCost",
            "offset": 0,
            "slot": "3",
            "type": "t_uint256"
          }
        ],
        "numberOfBytes": "128"
      },
      "t_uint256": {
        "encoding": "inplace",
        "label": "uint256",
        "numberOfBytes": "32"
      }
    }
  }
}