{
  "address": "0x2e055B8C26E4a228767940b679D2f5a595fBaaf8",
  "abi": [
    {
      "inputs": [
        {
          "internalType": "address",
          "name": "_treasury_wallet",
          "type": "address"
        }
      ],
      "stateMutability": "nonpayable",
      "type": "constructor"
    },
    {
      "anonymous": false,
      "inputs": [
        {
          "indexed": true,
          "internalType": "uint256",
          "name": "claimId",
          "type": "uint256"
        },
        {
          "indexed": false,
          "internalType": "string",
          "name": "hospitalName",
          "type": "string"
        },
        {
          "indexed": false,
          "internalType": "address",
          "name": "patientAddress",
          "type": "address"
        },
        {
          "indexed": false,
          "internalType": "uint256",
          "name": "medicalProcedure",
          "type": "uint256"
        },
        {
          "indexed": false,
          "internalType": "uint256",
          "name": "medicalProcedureCost",
          "type": "uint256"
        }
      ],
      "name": "ClaimCreated",
      "type": "event"
    },
    {
      "anonymous": false,
      "inputs": [
        {
          "indexed": false,
          "internalType": "string",
          "name": "hospitalName",
          "type": "string"
        },
        {
          "indexed": true,
          "internalType": "address",
          "name": "hospitalAddress",
          "type": "address"
        }
      ],
      "name": "HospitalAdded",
      "type": "event"
    },
    {
      "anonymous": false,
      "inputs": [
        {
          "indexed": false,
          "internalType": "string",
          "name": "hospitalName",
          "type": "string"
        },
        {
          "indexed": false,
          "internalType": "uint256",
          "name": "paymentAmount",
          "type": "uint256"
        },
        {
          "indexed": true,
          "internalType": "address",
          "name": "patientAddress",
          "type": "address"
        },
        {
          "indexed": false,
          "internalType": "uint256",
          "name": "medicalProcedure",
          "type": "uint256"
        }
      ],
      "name": "HospitalPaid",
      "type": "event"
    },
    {
      "anonymous": false,
      "inputs": [
        {
          "indexed": false,
          "internalType": "uint256",
          "name": "newLoadingRate",
          "type": "uint256"
        }
      ],
      "name": "LoadingRateChanged",
      "type": "event"
    },
    {
      "anonymous": false,
      "inputs": [
        {
          "indexed": true,
          "internalType": "uint256",
          "name": "policy",
          "type": "uint256"
        },
        {
          "indexed": false,
          "internalType": "address",
          "name": "lock",
          "type": "address"
        }
      ],
      "name": "MembershipAddedToPolicy",
      "type": "event"
    },
    {
      "anonymous": false,
      "inputs": [
        {
          "indexed": true,
          "internalType": "uint256",
          "name": "policyNumber",
          "type": "uint256"
        },
        {
          "indexed": false,
          "internalType": "string",
          "name": "name",
          "type": "string"
        },
        {
          "indexed": false,
          "internalType": "uint256[]",
          "name": "coverage",
          "type": "uint256[]"
        }
      ],
      "name": "PolicyCreated",
      "type": "event"
    },
    {
      "anonymous": false,
      "inputs": [
        {
          "indexed": false,
          "internalType": "uint256",
          "name": "code",
          "type": "uint256"
        },
        {
          "indexed": false,
          "internalType": "uint256",
          "name": "cost",
          "type": "uint256"
        },
        {
          "indexed": false,
          "internalType": "uint256",
          "name": "probability",
          "type": "uint256"
        }
      ],
      "name": "ProcedureAdded",
      "type": "event"
    },
    {
      "inputs": [
        {
          "internalType": "string",
          "name": "hospitalName",
          "type": "string"
        },
        {
          "internalType": "address",
          "name": "hospitalAddress",
          "type": "address"
        }
      ],
      "name": "addHospital",
      "outputs": [],
      "stateMutability": "nonpayable",
      "type": "function"
    },
    {
      "inputs": [
        {
          "internalType": "string",
          "name": "name",
          "type": "string"
        },
        {
          "internalType": "uint256[]",
          "name": "coverage",
          "type": "uint256[]"
        }
      ],
      "name": "addInsurancePolicy",
      "outputs": [],
      "stateMutability": "nonpayable",
      "type": "function"
    },
    {
      "inputs": [
        {
          "internalType": "uint256",
          "name": "_policy",
          "type": "uint256"
        },
        {
          "internalType": "address",
          "name": "lock",
          "type": "address"
        }
      ],
      "name": "addMembershipToPolicy",
      "outputs": [],
      "stateMutability": "nonpayable",
      "type": "function"
    },
    {
      "inputs": [
        {
          "internalType": "uint256",
          "name": "code",
          "type": "uint256"
        },
        {
          "internalType": "uint256",
          "name": "cost",
          "type": "uint256"
        },
        {
          "internalType": "uint256",
          "name": "probability",
          "type": "uint256"
        }
      ],
      "name": "addProcedure",
      "outputs": [],
      "stateMutability": "nonpayable",
      "type": "function"
    },
    {
      "inputs": [
        {
          "internalType": "uint256",
          "name": "amount",
          "type": "uint256"
        },
        {
          "internalType": "uint256",
          "name": "percentage",
          "type": "uint256"
        }
      ],
      "name": "applyPercentage",
      "outputs": [
        {
          "internalType": "uint256",
          "name": "",
          "type": "uint256"
        }
      ],
      "stateMutability": "pure",
      "type": "function"
    },
    {
      "inputs": [],
      "name": "claimCounter",
      "outputs": [
        {
          "internalType": "uint256",
          "name": "",
          "type": "uint256"
        }
      ],
      "stateMutability": "view",
      "type": "function"
    },
    {
      "inputs": [
        {
          "internalType": "uint256",
          "name": "",
          "type": "uint256"
        }
      ],
      "name": "claims",
      "outputs": [
        {
          "internalType": "string",
          "name": "hospitalName",
          "type": "string"
        },
        {
          "internalType": "address",
          "name": "patient_address",
          "type": "address"
        },
        {
          "internalType": "uint256",
          "name": "medicalProcedure",
          "type": "uint256"
        },
        {
          "internalType": "uint256",
          "name": "medicalProcedureCost",
          "type": "uint256"
        }
      ],
      "stateMutability": "view",
      "type": "function"
    },
    {
      "inputs": [],
      "name": "getAllClaims",
      "outputs": [
        {
          "components": [
            {
              "internalType": "string",
              "name": "hospitalName",
              "type": "string"
            },
            {
              "internalType": "address",
              "name": "patient_address",
              "type": "address"
            },
            {
              "internalType": "uint256",
              "name": "medicalProcedure",
              "type": "uint256"
            },
            {
              "internalType": "uint256",
              "name": "medicalProcedureCost",
              "type": "uint256"
            }
          ],
          "internalType": "struct Treasury.Claim[]",
          "name": "",
          "type": "tuple[]"
        }
      ],
      "stateMutability": "view",
      "type": "function"
    },
    {
      "inputs": [
        {
          "internalType": "uint256",
          "name": "claimId",
          "type": "uint256"
        }
      ],
      "name": "getClaim",
      "outputs": [
        {
          "components": [
            {
              "internalType": "string",
              "name": "hospitalName",
              "type": "string"
            },
            {
              "internalType": "address",
              "name": "patient_address",
              "type": "address"
            },
            {
              "internalType": "uint256",
              "name": "medicalProcedure",
              "type": "uint256"
            },
            {
              "internalType": "uint256",
              "name": "medicalProcedureCost",
              "type": "uint256"
            }
          ],
          "internalType": "struct Treasury.Claim",
          "name": "",
          "type": "tuple"
        }
      ],
      "stateMutability": "view",
      "type": "function"
    },
    {
      "inputs": [
        {
          "internalType": "string",
          "name": "hospitalName",
          "type": "string"
        }
      ],
      "name": "getHospitalAddress",
      "outputs": [
        {
          "internalType": "address",
          "name": "",
          "type": "address"
        }
      ],
      "stateMutability": "view",
      "type": "function"
    },
    {
      "inputs": [
        {
          "internalType": "uint256",
          "name": "_policy",
          "type": "uint256"
        }
      ],
      "name": "getMembershipFromPolicy",
      "outputs": [
        {
          "internalType": "address",
          "name": "",
          "type": "address"
        }
      ],
      "stateMutability": "view",
      "type": "function"
    },
    {
      "inputs": [
        {
          "internalType": "uint256",
          "name": "policyNumber",
          "type": "uint256"
        }
      ],
      "name": "getPremium",
      "outputs": [
        {
          "internalType": "uint256",
          "name": "",
          "type": "uint256"
        }
      ],
      "stateMutability": "view",
      "type": "function"
    },
    {
      "inputs": [],
      "name": "loading_rate",
      "outputs": [
        {
          "internalType": "uint256",
          "name": "",
          "type": "uint256"
        }
      ],
      "stateMutability": "view",
      "type": "function"
    },
    {
      "inputs": [
        {
          "internalType": "string",
          "name": "hospital_name",
          "type": "string"
        },
        {
          "internalType": "uint256",
          "name": "paymentAmount",
          "type": "uint256"
        },
        {
          "internalType": "address",
          "name": "_patient_address",
          "type": "address"
        },
        {
          "internalType": "uint256",
          "name": "medicalProcedure",
          "type": "uint256"
        }
      ],
      "name": "payHospital",
      "outputs": [],
      "stateMutability": "nonpayable",
      "type": "function"
    },
    {
      "inputs": [],
      "name": "policy_counter",
      "outputs": [
        {
          "internalType": "uint256",
          "name": "",
          "type": "uint256"
        }
      ],
      "stateMutability": "view",
      "type": "function"
    },
    {
      "inputs": [
        {
          "internalType": "uint256",
          "name": "new_loading_rate",
          "type": "uint256"
        }
      ],
      "name": "setLoadingRate",
      "outputs": [],
      "stateMutability": "nonpayable",
      "type": "function"
    },
    {
      "inputs": [],
      "name": "treasury_wallet",
      "outputs": [
        {
          "internalType": "address",
          "name": "",
          "type": "address"
        }
      ],
      "stateMutability": "view",
      "type": "function"
    }
  ],
  "transactionHash": "0xee5fc4bb3ddf375f03c528c868eb3da6b63d7b8c10475e2cc4ea072d82c85e3d",
  "args": [
    "0x3FE96Fd6ff721B15d5946CBb301AADEc7C0928C7"
  ],
  "numDeployments": 1,
  "solcInputHash": "12453f238f7b4c86a0867628893a946e",
  "bytecode": "0x60806040523480156200001157600080fd5b50604051620018ac380380620018ac83398101604081905262000034916200009e565b600a6008819055600060095580546001600160a01b0319166001600160a01b0392909216919091179055620000cb565b60006001600160a01b0382165b92915050565b620000828162000064565b81146200008e57600080fd5b50565b8051620000718162000077565b600060208284031215620000b557620000b5600080fd5b6000620000c3848462000091565b949350505050565b6117d180620000db6000396000f3fe608060405234801561001057600080fd5b506004361061011b5760003560e01c80634efa8f17116100b25780639512fb3b11610081578063a888c2cd11610066578063a888c2cd14610260578063a98db39614610283578063bf90c02d1461028c57600080fd5b80639512fb3b1461023a578063a0dabfcb1461024d57600080fd5b80634efa8f17146101e95780635aef2447146101f25780635b23c27d146102125780635c405b811461022757600080fd5b80633416af8f116100ee5780633416af8f146101875780633c0e86ba146101b05780633d25ac8c146101c35780634d099648146101d657600080fd5b806308f54c3e146101205780630cf33275146101355780631bf1fffb146101545780633098920714610167575b600080fd5b61013361012e366004610e1c565b61029f565b005b61013e60095481565b60405161014b9190610e9a565b60405180910390f35b61013e610162366004610ec3565b610330565b600a5461017a906001600160a01b031681565b60405161014b9190610efe565b61017a610195366004610ec3565b6000908152600660205260409020546001600160a01b031690565b6101336101be366004610f0c565b61044c565b6101336101d1366004610f70565b6104ab565b6101336101e4366004610fee565b6106c6565b61013e60015481565b610205610200366004610ec3565b61079d565b60405161014b91906110ee565b61021a6108ca565b60405161014b9190611171565b610133610235366004610ec3565b610a68565b610133610248366004611182565b610ad2565b61013e61025b3660046111a4565b610b38565b61027361026e366004610ec3565b610b7a565b60405161014b94939291906111d7565b61013e60085481565b61017a61029a366004611211565b610c36565b60095460009081526005602052604090206102bb908383610c67565b5060095460009081526007602052604090206102d78482611331565b50600980549060006102e88361140b565b91905055506009547f9ef9b973661c495624cfd675c93206df84209de5d252c5190623c1def0d5e06e84848460405161032393929190611480565b60405180910390a2505050565b600081815260056020908152604080832080548251818502810185019093528083528493849392919083018282801561038857602002820191906000526020600020905b815481526020019060010190808311610374575b5050505050905060005b815181101561041d57600460008383815181106103b1576103b16114a6565b6020026020010151815260200190815260200160002054600360008484815181106103de576103de6114a6565b60200260200101518152602001908152602001600020546103ff91906114bc565b61040990846114db565b9250806104158161140b565b915050610392565b5060008261042d84600854610b38565b61043791906114db565b905061044381846114db565b95945050505050565b6000838152600360209081526040808320859055600490915290819020829055517f42dbedb466fff6b6408608cb4a0260cfa32164f40f1da2aa85a967e42c7dc8129061049e908590859085906114ee565b60405180910390a1505050565b600a546001600160a01b031633146104de5760405162461bcd60e51b81526004016104d590611573565b60405180910390fd5b60006001600160a01b03166002856040516104f991906115a5565b908152604051908190036020019020546001600160a01b03160361052f5760405162461bcd60e51b81526004016104d5906115ef565b600060028560405161054191906115a5565b908152604051908190036020018120546001600160a01b031691506000908290869061056c906115ff565b60006040518083038185875af1925050503d80600081146105a9576040519150601f19603f3d011682016040523d82523d6000602084013e6105ae565b606091505b50509050806105cf5760405162461bcd60e51b81526004016104d59061163e565b604080516080810182528781526001600160a01b03861660208083019190915281830186905260608201889052600154600090815290819052919091208151819061061a9082611331565b5060208201516001828101805473ffffffffffffffffffffffffffffffffffffffff19166001600160a01b03909316929092179091556040830151600283015560609092015160039091015580549060006106748361140b565b9190505550836001600160a01b03167f18203e996d25d8d05725e9f2e77ec11117e84ee41e50e17a6a7349ed919c40038787866040516106b69392919061164e565b60405180910390a2505050505050565b60006001600160a01b03166002836040516106e191906115a5565b908152604051908190036020019020546001600160a01b0316146107175760405162461bcd60e51b81526004016104d5906116a2565b8060028360405161072891906115a5565b90815260405190819003602001812080546001600160a01b0393841673ffffffffffffffffffffffffffffffffffffffff19909116179055908216907f6e3a1bab169a0e2be4f8574901a5218e9f7319af1973e0d304486c3e5cebd3db906107919085906116b2565b60405180910390a25050565b6107d160405180608001604052806060815260200160006001600160a01b0316815260200160008152602001600081525090565b60015482106107f25760405162461bcd60e51b81526004016104d5906116f7565b6000828152602081905260409081902081516080810190925280548290829061081a90611262565b80601f016020809104026020016040519081016040528092919081815260200182805461084690611262565b80156108935780601f1061086857610100808354040283529160200191610893565b820191906000526020600020905b81548152906001019060200180831161087657829003601f168201915b505050918352505060018201546001600160a01b031660208201526002820154604082015260039091015460609091015292915050565b6060600060015467ffffffffffffffff8111156108e9576108e9610cc7565b60405190808252806020026020018201604052801561094e57816020015b61093b60405180608001604052806060815260200160006001600160a01b0316815260200160008152602001600081525090565b8152602001906001900390816109075790505b50905060005b600154811015610a62576000818152602081905260409081902081516080810190925280548290829061098690611262565b80601f01602080910402602001604051908101604052809291908181526020018280546109b290611262565b80156109ff5780601f106109d4576101008083540402835291602001916109ff565b820191906000526020600020905b8154815290600101906020018083116109e257829003601f168201915b505050918352505060018201546001600160a01b03166020820152600282015460408201526003909101546060909101528251839083908110610a4457610a446114a6565b60200260200101819052508080610a5a9061140b565b915050610954565b50919050565b600a546001600160a01b03163314610a925760405162461bcd60e51b81526004016104d590611573565b60088190556040517f02dfc8314647139d3b5d77d7518752fd07b019c15acb97bc9ddec5505d9024ac90610ac7908390610e9a565b60405180910390a150565b60008281526006602052604090819020805473ffffffffffffffffffffffffffffffffffffffff19166001600160a01b0384161790555182907f5cd227421765f010130529b6663cfe153b5bdda5e040201828935dda96b1e5ed90610791908490610efe565b60006064821115610b5b5760405162461bcd60e51b81526004016104d590611761565b6064610b6783856114bc565b610b719190611787565b90505b92915050565b600060208190529081526040902080548190610b9590611262565b80601f0160208091040260200160405190810160405280929190818152602001828054610bc190611262565b8015610c0e5780601f10610be357610100808354040283529160200191610c0e565b820191906000526020600020905b815481529060010190602001808311610bf157829003601f168201915b505050506001830154600284015460039094015492936001600160a01b039091169290915084565b6000600282604051610c4891906115a5565b908152604051908190036020019020546001600160a01b031692915050565b828054828255906000526020600020908101928215610ca2579160200282015b82811115610ca2578235825591602001919060010190610c87565b50610cae929150610cb2565b5090565b5b80821115610cae5760008155600101610cb3565b634e487b7160e01b600052604160045260246000fd5b601f19601f830116810181811067ffffffffffffffff82111715610d0357610d03610cc7565b6040525050565b6000610d1560405190565b9050610d218282610cdd565b919050565b600067ffffffffffffffff821115610d4057610d40610cc7565b601f19601f83011660200192915050565b82818337506000910152565b6000610d70610d6b84610d26565b610d0a565b905082815260208101848484011115610d8b57610d8b600080fd5b610d96848285610d51565b509392505050565b600082601f830112610db257610db2600080fd5b8135610dc2848260208601610d5d565b949350505050565b60008083601f840112610ddf57610ddf600080fd5b50813567ffffffffffffffff811115610dfa57610dfa600080fd5b602083019150836020820283011115610e1557610e15600080fd5b9250929050565b600080600060408486031215610e3457610e34600080fd5b833567ffffffffffffffff811115610e4e57610e4e600080fd5b610e5a86828701610d9e565b935050602084013567ffffffffffffffff811115610e7a57610e7a600080fd5b610e8686828701610dca565b92509250509250925092565b805b82525050565b60208101610b748284610e92565b805b8114610eb557600080fd5b50565b8035610b7481610ea8565b600060208284031215610ed857610ed8600080fd5b6000610dc28484610eb8565b60006001600160a01b038216610b74565b610e9481610ee4565b60208101610b748284610ef5565b600080600060608486031215610f2457610f24600080fd5b6000610f308686610eb8565b9350506020610f4186828701610eb8565b9250506040610f5286828701610eb8565b9150509250925092565b610eaa81610ee4565b8035610b7481610f5c565b60008060008060808587031215610f8957610f89600080fd5b843567ffffffffffffffff811115610fa357610fa3600080fd5b610faf87828801610d9e565b9450506020610fc087828801610eb8565b9350506040610fd187828801610f65565b9250506060610fe287828801610eb8565b91505092959194509250565b6000806040838503121561100457611004600080fd5b823567ffffffffffffffff81111561101e5761101e600080fd5b61102a85828601610d9e565b925050602061103b85828601610f65565b9150509250929050565b60005b83811015611060578181015183820152602001611048565b50506000910152565b6000611073825190565b80845260208401935061108a818560208601611045565b601f01601f19169290920192915050565b80516080808452600091908401906110b38282611069565b91505060208301516110c86020860182610ef5565b5060408301516110db6040860182610e92565b506060830151610d966060860182610e92565b60208082528101610b71818461109b565b6000610b71838361109b565b6000611115825190565b8084526020840193508360208202850161112f8560200190565b8060005b85811015611164578484038952815161114c85826110ff565b94506020830160209a909a0199925050600101611133565b5091979650505050505050565b60208082528101610b71818461110b565b6000806040838503121561119857611198600080fd5b600061102a8585610eb8565b600080604083850312156111ba576111ba600080fd5b60006111c68585610eb8565b925050602061103b85828601610eb8565b608080825281016111e88187611069565b90506111f76020830186610ef5565b6112046040830185610e92565b6104436060830184610e92565b60006020828403121561122657611226600080fd5b813567ffffffffffffffff81111561124057611240600080fd5b610dc284828501610d9e565b634e487b7160e01b600052602260045260246000fd5b60028104600182168061127657607f821691505b602082108103610a6257610a6261124c565b6000610b746112948381565b90565b6112a083611288565b81546008840282811b60001990911b908116901990911617825550505050565b60006112cd818484611297565b505050565b818110156112ed576112e56000826112c0565b6001016112d2565b5050565b601f8211156112cd576000818152602090206020601f850104810160208510156113185750805b61132a6020601f8601048301826112d2565b5050505050565b815167ffffffffffffffff81111561134b5761134b610cc7565b6113558254611262565b6113608282856112f1565b6020601f831160018114611394576000841561137c5750858201515b600019600886021c19811660028602178655506113ed565b600085815260208120601f198616915b828110156113c457888501518255602094850194600190920191016113a4565b868310156113e05784890151600019601f89166008021c191682555b6001600288020188555050505b505050505050565b634e487b7160e01b600052601160045260246000fd5b6000600019820361141e5761141e6113f5565b5060010190565b82818337505050565b81835260006020840193507f07ffffffffffffffffffffffffffffffffffffffffffffffffffffffffffffff83111561146957611469600080fd5b60208302925061147a838584611425565b50500190565b604080825281016114918186611069565b9050818103602083015261044381848661142e565b634e487b7160e01b600052603260045260246000fd5b8181028082158382048514176114d4576114d46113f5565b5092915050565b80820180821115610b7457610b746113f5565b606081016114fc8286610e92565b6115096020830185610e92565b610dc26040830184610e92565b602381526000602082017f4f6e6c79206120766f7465722063616e2063616c6c20746869732066756e637481527f696f6e0000000000000000000000000000000000000000000000000000000000602082015291505b5060400190565b60208082528101610b7481611516565b600061158d825190565b61159b818560208601611045565b9290920192915050565b60006115b18284611583565b9392505050565b601781526000602082017f686f73706974616c20646f6573206e6f74206578697374000000000000000000815291505b5060200190565b60208082528101610b74816115b8565b6000610b7482611294565b600e81526000602082017f5061796d656e74206661696c6564000000000000000000000000000000000000815291506115e8565b60208082528101610b748161160a565b6060808252810161165f8186611069565b90506115096020830185610e92565b601781526000602082017f486f73706974616c20616c726561647920657869737473000000000000000000815291506115e8565b60208082528101610b748161166e565b60208082528101610b718184611069565b601481526000602082017f436c61696d20646f6573206e6f74206578697374000000000000000000000000815291506115e8565b60208082528101610b74816116c3565b603581526000602082017f50657263656e746167652073686f756c6420626520612077686f6c65206e756d81527f626572206265747765656e203120616e642031303000000000000000000000006020820152915061156c565b60208082528101610b7481611707565b634e487b7160e01b600052601260045260246000fd5b60008261179657611796611771565b50049056fea2646970667358221220f1294233d6338f1449f5ec7bb05d21d47b3abe7a48a96e6fb2d904a75ebb42ad64736f6c63430008110033",
  "devdoc": {
    "kind": "dev",
    "methods": {},
    "version": 1
  },
  "userdoc": {
    "kind": "user",
    "methods": {},
    "version": 1
  },
  "storageLayout": {
    "storage": [
      {
        "astId": 2725,
        "contract": "contracts/Treasury.sol:Treasury",
        "label": "claims",
        "offset": 0,
        "slot": "0",
        "type": "t_mapping(t_uint256,t_struct(Claim)2720_storage)"
      },
      {
        "astId": 2727,
        "contract": "contracts/Treasury.sol:Treasury",
        "label": "claimCounter",
        "offset": 0,
        "slot": "1",
        "type": "t_uint256"
      },
      {
        "astId": 2731,
        "contract": "contracts/Treasury.sol:Treasury",
        "label": "hospitalList",
        "offset": 0,
        "slot": "2",
        "type": "t_mapping(t_string_memory_ptr,t_address)"
      },
      {
        "astId": 2735,
        "contract": "contracts/Treasury.sol:Treasury",
        "label": "medical_procedure_cost",
        "offset": 0,
        "slot": "3",
        "type": "t_mapping(t_uint256,t_uint256)"
      },
      {
        "astId": 2739,
        "contract": "contracts/Treasury.sol:Treasury",
        "label": "medical_procedure_probability",
        "offset": 0,
        "slot": "4",
        "type": "t_mapping(t_uint256,t_uint256)"
      },
      {
        "astId": 2744,
        "contract": "contracts/Treasury.sol:Treasury",
        "label": "policy",
        "offset": 0,
        "slot": "5",
        "type": "t_mapping(t_uint256,t_array(t_uint256)dyn_storage)"
      },
      {
        "astId": 2748,
        "contract": "contracts/Treasury.sol:Treasury",
        "label": "membership_nft",
        "offset": 0,
        "slot": "6",
        "type": "t_mapping(t_uint256,t_address)"
      },
      {
        "astId": 2752,
        "contract": "contracts/Treasury.sol:Treasury",
        "label": "policy_name",
        "offset": 0,
        "slot": "7",
        "type": "t_mapping(t_uint256,t_string_storage)"
      },
      {
        "astId": 2754,
        "contract": "contracts/Treasury.sol:Treasury",
        "label": "loading_rate",
        "offset": 0,
        "slot": "8",
        "type": "t_uint256"
      },
      {
        "astId": 2756,
        "contract": "contracts/Treasury.sol:Treasury",
        "label": "policy_counter",
        "offset": 0,
        "slot": "9",
        "type": "t_uint256"
      },
      {
        "astId": 2758,
        "contract": "contracts/Treasury.sol:Treasury",
        "label": "treasury_wallet",
        "offset": 0,
        "slot": "10",
        "type": "t_address"
      }
    ],
    "types": {
      "t_address": {
        "encoding": "inplace",
        "label": "address",
        "numberOfBytes": "20"
      },
      "t_array(t_uint256)dyn_storage": {
        "base": "t_uint256",
        "encoding": "dynamic_array",
        "label": "uint256[]",
        "numberOfBytes": "32"
      },
      "t_mapping(t_string_memory_ptr,t_address)": {
        "encoding": "mapping",
        "key": "t_string_memory_ptr",
        "label": "mapping(string => address)",
        "numberOfBytes": "32",
        "value": "t_address"
      },
      "t_mapping(t_uint256,t_address)": {
        "encoding": "mapping",
        "key": "t_uint256",
        "label": "mapping(uint256 => address)",
        "numberOfBytes": "32",
        "value": "t_address"
      },
      "t_mapping(t_uint256,t_array(t_uint256)dyn_storage)": {
        "encoding": "mapping",
        "key": "t_uint256",
        "label": "mapping(uint256 => uint256[])",
        "numberOfBytes": "32",
        "value": "t_array(t_uint256)dyn_storage"
      },
      "t_mapping(t_uint256,t_string_storage)": {
        "encoding": "mapping",
        "key": "t_uint256",
        "label": "mapping(uint256 => string)",
        "numberOfBytes": "32",
        "value": "t_string_storage"
      },
      "t_mapping(t_uint256,t_struct(Claim)2720_storage)": {
        "encoding": "mapping",
        "key": "t_uint256",
        "label": "mapping(uint256 => struct Treasury.Claim)",
        "numberOfBytes": "32",
        "value": "t_struct(Claim)2720_storage"
      },
      "t_mapping(t_uint256,t_uint256)": {
        "encoding": "mapping",
        "key": "t_uint256",
        "label": "mapping(uint256 => uint256)",
        "numberOfBytes": "32",
        "value": "t_uint256"
      },
      "t_string_memory_ptr": {
        "encoding": "bytes",
        "label": "string",
        "numberOfBytes": "32"
      },
      "t_string_storage": {
        "encoding": "bytes",
        "label": "string",
        "numberOfBytes": "32"
      },
      "t_struct(Claim)2720_storage": {
        "encoding": "inplace",
        "label": "struct Treasury.Claim",
        "members": [
          {
            "astId": 2713,
            "contract": "contracts/Treasury.sol:Treasury",
            "label": "hospitalName",
            "offset": 0,
            "slot": "0",
            "type": "t_string_storage"
          },
          {
            "astId": 2715,
            "contract": "contracts/Treasury.sol:Treasury",
            "label": "patient_address",
            "offset": 0,
            "slot": "1",
            "type": "t_address"
          },
          {
            "astId": 2717,
            "contract": "contracts/Treasury.sol:Treasury",
            "label": "medicalProcedure",
            "offset": 0,
            "slot": "2",
            "type": "t_uint256"
          },
          {
            "astId": 2719,
            "contract": "contracts/Treasury.sol:Treasury",
            "label": "medicalProcedureCost",
            "offset": 0,
            "slot": "3",
            "type": "t_uint256"
          }
        ],
        "numberOfBytes": "128"
      },
      "t_uint256": {
        "encoding": "inplace",
        "label": "uint256",
        "numberOfBytes": "32"
      }
    }
  }
}