{
  "address": "0x3421e2c1570F751F34AC1C6dEabbcEE3C7c865A3",
  "abi": [
    {
      "inputs": [
        {
          "internalType": "address",
          "name": "_treasury_wallet",
          "type": "address"
        }
      ],
      "stateMutability": "nonpayable",
      "type": "constructor"
    },
    {
      "inputs": [
        {
          "internalType": "string",
          "name": "hospitalName",
          "type": "string"
        },
        {
          "internalType": "address",
          "name": "hospitalAddress",
          "type": "address"
        }
      ],
      "name": "addHospital",
      "outputs": [],
      "stateMutability": "nonpayable",
      "type": "function"
    },
    {
      "inputs": [
        {
          "internalType": "string",
          "name": "name",
          "type": "string"
        },
        {
          "internalType": "uint256[]",
          "name": "coverage",
          "type": "uint256[]"
        }
      ],
      "name": "addInsurancePolicy",
      "outputs": [],
      "stateMutability": "nonpayable",
      "type": "function"
    },
    {
      "inputs": [
        {
          "internalType": "uint256",
          "name": "policy",
          "type": "uint256"
        },
        {
          "internalType": "address",
          "name": "lock",
          "type": "address"
        }
      ],
      "name": "addMembershipToPolicy",
      "outputs": [],
      "stateMutability": "nonpayable",
      "type": "function"
    },
    {
      "inputs": [
        {
          "internalType": "uint256",
          "name": "code",
          "type": "uint256"
        },
        {
          "internalType": "uint256",
          "name": "cost",
          "type": "uint256"
        },
        {
          "internalType": "uint256",
          "name": "probability",
          "type": "uint256"
        }
      ],
      "name": "addProcedure",
      "outputs": [],
      "stateMutability": "nonpayable",
      "type": "function"
    },
    {
      "inputs": [
        {
          "internalType": "uint256",
          "name": "amount",
          "type": "uint256"
        },
        {
          "internalType": "uint256",
          "name": "percentage",
          "type": "uint256"
        }
      ],
      "name": "applyPercentage",
      "outputs": [
        {
          "internalType": "uint256",
          "name": "",
          "type": "uint256"
        }
      ],
      "stateMutability": "pure",
      "type": "function"
    },
    {
      "inputs": [
        {
          "internalType": "string",
          "name": "hospitalName",
          "type": "string"
        }
      ],
      "name": "getHospitalAddress",
      "outputs": [
        {
          "internalType": "address",
          "name": "",
          "type": "address"
        }
      ],
      "stateMutability": "view",
      "type": "function"
    },
    {
      "inputs": [
        {
          "internalType": "uint256",
          "name": "policyNumber",
          "type": "uint256"
        }
      ],
      "name": "getPremium",
      "outputs": [
        {
          "internalType": "uint256",
          "name": "",
          "type": "uint256"
        }
      ],
      "stateMutability": "view",
      "type": "function"
    },
    {
      "inputs": [],
      "name": "loading_rate",
      "outputs": [
        {
          "internalType": "uint256",
          "name": "",
          "type": "uint256"
        }
      ],
      "stateMutability": "view",
      "type": "function"
    },
    {
      "inputs": [
        {
          "internalType": "string",
          "name": "hospitalName",
          "type": "string"
        },
        {
          "internalType": "uint256",
          "name": "paymentAmount",
          "type": "uint256"
        }
      ],
      "name": "payHospital",
      "outputs": [],
      "stateMutability": "nonpayable",
      "type": "function"
    },
    {
      "inputs": [],
      "name": "policy_counter",
      "outputs": [
        {
          "internalType": "uint256",
          "name": "",
          "type": "uint256"
        }
      ],
      "stateMutability": "view",
      "type": "function"
    },
    {
      "inputs": [
        {
          "internalType": "uint256",
          "name": "new_loading_rate",
          "type": "uint256"
        }
      ],
      "name": "setLoadingRate",
      "outputs": [],
      "stateMutability": "nonpayable",
      "type": "function"
    },
    {
      "inputs": [],
      "name": "treasury_wallet",
      "outputs": [
        {
          "internalType": "address",
          "name": "",
          "type": "address"
        }
      ],
      "stateMutability": "view",
      "type": "function"
    }
  ],
  "transactionHash": "0x60ce0f82764a298c76b24e246a3146b9444fb5494842d3d0dfb962d33fc84c4f",
  "args": [
    "0x3FE96Fd6ff721B15d5946CBb301AADEc7C0928C7"
  ],
  "numDeployments": 3,
  "solcInputHash": "b14a74f6d87ae86d0054f654616a8eba",
  "bytecode": "0x608060405234801561001057600080fd5b50604051610eb1380380610eb183398101604081905261002f91610093565b600a6006556000600755600880546001600160a01b0319166001600160a01b03929092169190911790556100bc565b60006001600160a01b0382165b92915050565b61007a8161005e565b811461008557600080fd5b50565b805161006b81610071565b6000602082840312156100a8576100a8600080fd5b60006100b48484610088565b949350505050565b610de6806100cb6000396000f3fe608060405234801561001057600080fd5b50600436106100d45760003560e01c80635c405b8111610081578063a98db3961161005b578063a98db396146101ee578063bf90c02d146101f7578063f6b67f071461020a57600080fd5b80635c405b811461017f5780639512fb3b14610192578063a0dabfcb146101db57600080fd5b806330989207116100b257806330989207146101205780633c0e86ba146101405780634d0996481461016c57600080fd5b806308f54c3e146100d95780630cf33275146100ee5780631bf1fffb1461010d575b600080fd5b6100ec6100e7366004610754565b61021d565b005b6100f760075481565b60405161010491906107d2565b60405180910390f35b6100f761011b3660046107fb565b610270565b600854610133906001600160a01b031681565b6040516101049190610836565b6100ec61014e366004610844565b60009283526001602090815260408085209390935560029052912055565b6100ec61017a3660046108a8565b61038c565b6100ec61018d3660046107fb565b600655565b6100ec6101a03660046108ff565b600091825260046020526040909120805473ffffffffffffffffffffffffffffffffffffffff19166001600160a01b03909216919091179055565b6100f76101e9366004610921565b610437565b6100f760065481565b610133610205366004610954565b610479565b6100ec61021836600461098f565b6104a9565b600754600090815260036020526040902061023990838361059f565b5060075460009081526005602052604090206102558482610ab6565b506007805490600061026683610b90565b9190505550505050565b60008181526003602090815260408083208054825181850281018501909352808352849384939291908301828280156102c857602002820191906000526020600020905b8154815260200190600101908083116102b4575b5050505050905060005b815181101561035d57600260008383815181106102f1576102f1610baa565b60200260200101518152602001908152602001600020546001600084848151811061031e5761031e610baa565b602002602001015181526020019081526020016000205461033f9190610bc0565b6103499084610bdf565b92508061035581610b90565b9150506102d2565b5060008261036d84600654610437565b6103779190610bdf565b90506103838184610bdf565b95945050505050565b60006001600160a01b03166000836040516103a79190610c38565b908152604051908190036020019020546001600160a01b0316146103e65760405162461bcd60e51b81526004016103dd90610c82565b60405180910390fd5b806000836040516103f79190610c38565b90815260405190819003602001902080546001600160a01b039290921673ffffffffffffffffffffffffffffffffffffffff199092169190911790555050565b6000606482111561045a5760405162461bcd60e51b81526004016103dd90610c92565b60646104668385610bc0565b6104709190610d09565b90505b92915050565b6000808260405161048a9190610c38565b908152604051908190036020019020546001600160a01b031692915050565b60006001600160a01b03166000836040516104c49190610c38565b908152604051908190036020019020546001600160a01b0316036104fa5760405162461bcd60e51b81526004016103dd90610d51565b6000808360405161050b9190610c38565b908152604051908190036020018120546001600160a01b031691506000908290849061053690610d61565b60006040518083038185875af1925050503d8060008114610573576040519150601f19603f3d011682016040523d82523d6000602084013e610578565b606091505b50509050806105995760405162461bcd60e51b81526004016103dd90610da0565b50505050565b8280548282559060005260206000209081019282156105da579160200282015b828111156105da5782358255916020019190600101906105bf565b506105e69291506105ea565b5090565b5b808211156105e657600081556001016105eb565b634e487b7160e01b600052604160045260246000fd5b601f19601f830116810181811067ffffffffffffffff8211171561063b5761063b6105ff565b6040525050565b600061064d60405190565b90506106598282610615565b919050565b600067ffffffffffffffff821115610678576106786105ff565b601f19601f83011660200192915050565b82818337506000910152565b60006106a86106a38461065e565b610642565b9050828152602081018484840111156106c3576106c3600080fd5b6106ce848285610689565b509392505050565b600082601f8301126106ea576106ea600080fd5b81356106fa848260208601610695565b949350505050565b60008083601f84011261071757610717600080fd5b50813567ffffffffffffffff81111561073257610732600080fd5b60208301915083602082028301111561074d5761074d600080fd5b9250929050565b60008060006040848603121561076c5761076c600080fd5b833567ffffffffffffffff81111561078657610786600080fd5b610792868287016106d6565b935050602084013567ffffffffffffffff8111156107b2576107b2600080fd5b6107be86828701610702565b92509250509250925092565b805b82525050565b6020810161047382846107ca565b805b81146107ed57600080fd5b50565b8035610473816107e0565b60006020828403121561081057610810600080fd5b60006106fa84846107f0565b60006001600160a01b038216610473565b6107cc8161081c565b60208101610473828461082d565b60008060006060848603121561085c5761085c600080fd5b600061086886866107f0565b9350506020610879868287016107f0565b925050604061088a868287016107f0565b9150509250925092565b6107e28161081c565b803561047381610894565b600080604083850312156108be576108be600080fd5b823567ffffffffffffffff8111156108d8576108d8600080fd5b6108e4858286016106d6565b92505060206108f58582860161089d565b9150509250929050565b6000806040838503121561091557610915600080fd5b60006108e485856107f0565b6000806040838503121561093757610937600080fd5b600061094385856107f0565b92505060206108f5858286016107f0565b60006020828403121561096957610969600080fd5b813567ffffffffffffffff81111561098357610983600080fd5b6106fa848285016106d6565b600080604083850312156109a5576109a5600080fd5b823567ffffffffffffffff8111156109bf576109bf600080fd5b610943858286016106d6565b634e487b7160e01b600052602260045260246000fd5b6002810460018216806109f557607f821691505b602082108103610a0757610a076109cb565b50919050565b6000610473610a198381565b90565b610a2583610a0d565b81546008840282811b60001990911b908116901990911617825550505050565b6000610a52818484610a1c565b505050565b81811015610a7257610a6a600082610a45565b600101610a57565b5050565b601f821115610a52576000818152602090206020601f85010481016020851015610a9d5750805b610aaf6020601f860104830182610a57565b5050505050565b815167ffffffffffffffff811115610ad057610ad06105ff565b610ada82546109e1565b610ae5828285610a76565b6020601f831160018114610b195760008415610b015750858201515b600019600886021c1981166002860217865550610b72565b600085815260208120601f198616915b82811015610b495788850151825560209485019460019092019101610b29565b86831015610b655784890151600019601f89166008021c191682555b6001600288020188555050505b505050505050565b634e487b7160e01b600052601160045260246000fd5b60006000198203610ba357610ba3610b7a565b5060010190565b634e487b7160e01b600052603260045260246000fd5b818102808215838204851417610bd857610bd8610b7a565b5092915050565b8082018082111561047357610473610b7a565b60005b83811015610c0d578181015183820152602001610bf5565b50506000910152565b6000610c20825190565b610c2e818560208601610bf2565b9290920192915050565b6000610c448284610c16565b9392505050565b601781526000602082017f486f73706974616c20616c726561647920657869737473000000000000000000815291505b5060200190565b6020808252810161047381610c4b565b6020808252810161047381603581527f50657263656e746167652073686f756c6420626520612077686f6c65206e756d60208201527f626572206265747765656e203120616e64203130300000000000000000000000604082015260600190565b634e487b7160e01b600052601260045260246000fd5b600082610d1857610d18610cf3565b500490565b601781526000602082017f686f73706974616c20646f6573206e6f7420657869737400000000000000000081529150610c7b565b6020808252810161047381610d1d565b600061047382610a19565b600e81526000602082017f5061796d656e74206661696c656400000000000000000000000000000000000081529150610c7b565b6020808252810161047381610d6c56fea26469706673582212203cf3ebcea36a9692214de1246b9b2d64146413c5ddba8c113a4d2a590e53e70964736f6c63430008110033",
  "devdoc": {
    "kind": "dev",
    "methods": {},
    "version": 1
  },
  "userdoc": {
    "kind": "user",
    "methods": {},
    "version": 1
  },
  "storageLayout": {
    "storage": [
      {
        "astId": 2715,
        "contract": "contracts/Treasury.sol:Treasury",
        "label": "hospitalList",
        "offset": 0,
        "slot": "0",
        "type": "t_mapping(t_string_memory_ptr,t_address)"
      },
      {
        "astId": 2719,
        "contract": "contracts/Treasury.sol:Treasury",
        "label": "medical_procedure_cost",
        "offset": 0,
        "slot": "1",
        "type": "t_mapping(t_uint256,t_uint256)"
      },
      {
        "astId": 2723,
        "contract": "contracts/Treasury.sol:Treasury",
        "label": "medical_procedure_probability",
        "offset": 0,
        "slot": "2",
        "type": "t_mapping(t_uint256,t_uint256)"
      },
      {
        "astId": 2728,
        "contract": "contracts/Treasury.sol:Treasury",
        "label": "policy",
        "offset": 0,
        "slot": "3",
        "type": "t_mapping(t_uint256,t_array(t_uint256)dyn_storage)"
      },
      {
        "astId": 2732,
        "contract": "contracts/Treasury.sol:Treasury",
        "label": "membership_nft",
        "offset": 0,
        "slot": "4",
        "type": "t_mapping(t_uint256,t_address)"
      },
      {
        "astId": 2736,
        "contract": "contracts/Treasury.sol:Treasury",
        "label": "policy_name",
        "offset": 0,
        "slot": "5",
        "type": "t_mapping(t_uint256,t_string_storage)"
      },
      {
        "astId": 2738,
        "contract": "contracts/Treasury.sol:Treasury",
        "label": "loading_rate",
        "offset": 0,
        "slot": "6",
        "type": "t_uint256"
      },
      {
        "astId": 2740,
        "contract": "contracts/Treasury.sol:Treasury",
        "label": "policy_counter",
        "offset": 0,
        "slot": "7",
        "type": "t_uint256"
      },
      {
        "astId": 2742,
        "contract": "contracts/Treasury.sol:Treasury",
        "label": "treasury_wallet",
        "offset": 0,
        "slot": "8",
        "type": "t_address"
      }
    ],
    "types": {
      "t_address": {
        "encoding": "inplace",
        "label": "address",
        "numberOfBytes": "20"
      },
      "t_array(t_uint256)dyn_storage": {
        "base": "t_uint256",
        "encoding": "dynamic_array",
        "label": "uint256[]",
        "numberOfBytes": "32"
      },
      "t_mapping(t_string_memory_ptr,t_address)": {
        "encoding": "mapping",
        "key": "t_string_memory_ptr",
        "label": "mapping(string => address)",
        "numberOfBytes": "32",
        "value": "t_address"
      },
      "t_mapping(t_uint256,t_address)": {
        "encoding": "mapping",
        "key": "t_uint256",
        "label": "mapping(uint256 => address)",
        "numberOfBytes": "32",
        "value": "t_address"
      },
      "t_mapping(t_uint256,t_array(t_uint256)dyn_storage)": {
        "encoding": "mapping",
        "key": "t_uint256",
        "label": "mapping(uint256 => uint256[])",
        "numberOfBytes": "32",
        "value": "t_array(t_uint256)dyn_storage"
      },
      "t_mapping(t_uint256,t_string_storage)": {
        "encoding": "mapping",
        "key": "t_uint256",
        "label": "mapping(uint256 => string)",
        "numberOfBytes": "32",
        "value": "t_string_storage"
      },
      "t_mapping(t_uint256,t_uint256)": {
        "encoding": "mapping",
        "key": "t_uint256",
        "label": "mapping(uint256 => uint256)",
        "numberOfBytes": "32",
        "value": "t_uint256"
      },
      "t_string_memory_ptr": {
        "encoding": "bytes",
        "label": "string",
        "numberOfBytes": "32"
      },
      "t_string_storage": {
        "encoding": "bytes",
        "label": "string",
        "numberOfBytes": "32"
      },
      "t_uint256": {
        "encoding": "inplace",
        "label": "uint256",
        "numberOfBytes": "32"
      }
    }
  }
}